:020000040800F2
:10000000D8060020650200086D0200086F02000893
:100010007102000873020008750200080000000069
:10002000000000000000000000000000770200084F
:1000300079020008000000007B020008C51E0008CD
:100040007F0200087F0200087F0200087F0200088C
:100050007F0200087F0200087F0200087F0200087C
:100060007F0200087F0200087F0200087F0200086C
:100070007F0200087F0200087F0200087F0200085C
:100080007F0200087F0200087F0200087F0200084C
:100090007F0200087F0200087F0200087F0200083C
:1000A0007F0200087F0200087F0200087F0200082C
:1000B0007F0200087F0200087F0200087F0200081C
:1000C0007F0200087F0200087F0200087F0200080C
:1000D0007F0200087F0200087F0200087F020008FC
:1000E0007F0200087F0200087F0200087F020008EC
:1000F0007F0200087F0200087F0200087F020008DC
:100100007F0200087F0200087F0200087F020008CB
:100110007F0200087F0200087F0200087F020008BB
:100120005D0400087F0200087F0200087F020008CB
:100130007F02000800000000000000007F020008AD
:100140007F0200087F0200087F0200087F0200088B
:100150007F0200087F0200087F0200087F0200087B
:100160007F0200087F0200087F0200087F0200086B
:100170007F0200087F0200087F02000800000000E4
:10018000000000007F0200080000000000000000E6
:100190007F02000800000000000000007F0200084D
:1001A0000000000000000000000000007F020008C6
:1001B0007F0200087F0200087F0200087F0200081B
:1001C0007F02000800F002F800F03CF80AA090E876
:1001D000000C82448344AAF10107DA4501D100F002
:1001E00031F8AFF2090EBAE80F0013F0010F18BF93
:1001F000FB1A43F001031847441F0000641F00006E
:10020000103A24BF78C878C1FAD8520724BF30C842
:1002100030C144BF04680C60704700000023002414
:1002200000250026103A28BF78C1FBD8520728BF06
:1002300030C148BF0B6070471FB501F065FF1FBD9F
:1002400010B510BD00F0D0F81146FFF7F5FF01F032
:1002500003FF00F0EEF803B4FFF7F2FF03BC00F079
:10026000F5F800000948804709480047FEE7FEE727
:10027000FEE7FEE7FEE7FEE7FEE7FEE7FEE7FEE756
:1002800004480549054A064B70470000851F0008D1
:10029000C5010008D8000020D8060020D8020020A0
:1002A000D802002053EA020C00F069802DE9F04BDF
:1002B0004FF00006002B1FBFB3FA83F503FA05F4D5
:1002C00024FA05F65E4012BF1643B2FA82F502FA2E
:1002D00005F4C5F120051EBF22FA05FC44EA0C0412
:1002E000203556EA044C4FEA144418BF641C4FF002
:1002F00000084FF00009904271EB030C39D300293C
:1003000019BFB1FA81F701FA07F6B0FA80F700FADF
:1003100007F6C7F120071EBF20FA07FC46EA0C06C5
:100320002037B6FBF4FCA7EB0507103F07F01F0BC7
:10033000CBF120062CFA06F60CFA0BFB44BFB346B1
:100340000026202FA4BF5E464FF0000B5BEA060C90
:1003500008BF4FF0010B19EB0B0948EB0608ABFB8C
:10036000027C06FB02CC0BFB03CCC01B71EB0C0127
:10037000C1E70B46024641464846BDE8F08B13B53F
:10038000084318BF4FF0FF300146AFF30080BDE8CF
:100390001C4070474FF0000200B513469446964645
:1003A000203922BFA0E80C50A0E80C50B1F1200188
:1003B000BFF4F7AF090728BFA0E80C5048BF0CC036
:1003C0005DF804EB890028BF40F8042B08BF704794
:1003D00048BF20F8022B11F0804F18BF00F8012B06
:1003E0007047704770477047754600F02BF8AE466F
:1003F00005006946534620F00700854618B020B531
:10040000FFF73EFFBDE820404FF000064FF0000729
:100410004FF000084FF0000BAC46ACE8C009ACE868
:10042000C009ACE8C009ACE8C00921F007018D465D
:10043000704710B50446AFF300802046BDE8104079
:10044000FFF709BF0048704710000020014918203D
:10045000ABBEFEE7260002007047000080B540F208
:100460007000C2F2000000F0D5F880BD82B00190AB
:100470000198007810384AF6AB21CAF6AA21A0FBF1
:10048000011000090090009942F23210C0F60000FD
:10049000405C0199C8650098042807D3FFE70199DB
:1004A0000868042262F30900886506E0019908687B
:1004B00040F2FF3290438865FFE70198806D02B0FB
:1004C0007047000086B0059000208DF81300059855
:1004D000806A03900598806910BBFFE7039802903B
:1004E00003281BD80299DFE801F0020D02180598D5
:1004F00090F82F00C00720B1FFE701208DF813000E
:10050000FFE70CE00598C06AB0F1C07F04D1FFE7B7
:1005100001208DF81300FFE701E000E0FFE745E070
:1005200005988069B0F5005F25D1FFE70398019039
:1005300003281ED80199DFE801F00206021101200C
:100540008DF8130016E0059890F82F00C00720B131
:10055000FFE701208DF81300FFE70BE00598C06A64
:10056000B0F1C07F04D1FFE701208DF81300FFE751
:1005700000E0FFE719E003980090032804D3FFE7A9
:100580000098032804D00EE001208DF813000BE042
:10059000059890F82F00C00720B1FFE701208DF8E3
:1005A0001300FFE700E0FFE7FFE7FFE79DF8130018
:1005B00006B0704784B003900291019200930398B3
:1005C0000168086820F48020086000980399096891
:1005D000486003988068402809D1FFE70198039993
:1005E00009688860029803990968C86008E0029861
:1005F000039909688860019803990968C860FFE752
:1006000004B0704781B0EFF3108072B60090FFE73E
:10061000FEE7000080B586B005900020039040F210
:100620000000C2F20000006848F2B511C1F64E3178
:10063000A0FB0110800A02900598806D019001983E
:100640000068049004980599C96DC8400007002807
:100650001AD5FFE70598006800684007002812D502
:10066000FFE705980168086820F004000860059815
:10067000C16D08208840019988600599486D40F057
:1006800001004865FFE7FFE704980599C96DC84078
:10069000C007A0B1FFE70598006840690006002880
:1006A0000CD5FFE70598C16D01208840019988604D
:1006B0000599486D40F002004865FFE7FFE70498A0
:1006C0000599C96DC8404007002814D5FFE7059873
:1006D00000680068800700280CD5FFE70598C16D09
:1006E00004208840019988600599486D40F0040015
:1006F0004865FFE7FFE704980599C96DC840C00643
:10070000002847D5FFE70598006800680007002823
:100710003FD5FFE70598C16D10208840019988609A
:10072000059800680068400300281AD5FFE705987F
:10073000006800680003002809D4FFE70598006CF2
:1007400020B1FFE70598016C8847FFE708E00598AE
:10075000806C20B1FFE70598816C8847FFE7FFE7D1
:1007600016E0059800680068C005002807D4FFE778
:1007700005980168086820F008000860FFE7059800
:10078000006C20B1FFE70598016C8847FFE7FFE7A1
:10079000FFE7FFE704980599C96DC8408006002867
:1007A00040F18D80FFE7059800680068C0060028CA
:1007B00040F18480FFE70598C16D202088400199B1
:1007C0008860059890F83500052834D1FFE7059832
:1007D0000168086820F016000860059801684869FB
:1007E00020F0800048610598006C20B9FFE705986B
:1007F000806C38B1FFE705980168086820F00800B0
:100800000860FFE70598C16D3F2088400199886026
:100810000599012081F83500FFE70599002081F84E
:100820003400FFE70598006D20B1FFE70598016DE2
:100830008847FFE77BE005980068006840030028D0
:100840001AD5FFE70598006800680003002809D45E
:10085000FFE70598406C20B1FFE70598416C884799
:10086000FFE708E00598C06B20B1FFE70598C16B72
:100870008847FFE7FFE720E0059800680068C005AB
:10088000002811D4FFE705980168086820F01000DF
:1008900008600599012081F83500FFE705990020DF
:1008A00081F83400FFE7FFE70598C06B20B1FFE750
:1008B0000598C16B8847FFE7FFE7FFE7FFE705986B
:1008C000406DA0B3FFE70598406DC00730B3FFE768
:1008D0000599052081F8350005980168086820F021
:1008E00001000860FFE703980130039002998842F5
:1008F00001D9FFE707E0FFE7059800680068C00737
:100900000028F0D1FFE70599012081F83500FFE7C5
:100910000599002081F83400FFE7FFE70598C06CD7
:1009200020B1FFE70598C16C8847FFE7FFE706B0F5
:1009300080BD000080B586B004900020039000F0D8
:1009400055FB0290049820B9FFE701208DF81700AD
:10095000A3E00498406A08B1FFE7FFE7049902208A
:1009600081F83500FFE70499002081F83400FFE7A3
:1009700004980168086820F001000860FFE7049807
:1009800000680068C00790B1FFE700F02FFB0299F4
:10099000401A06280AD3FFE70499202048650499E5
:1009A000032081F835008DF8170076E0E7E704981A
:1009B000006800680390039848F23F01CFF21001ED
:1009C00008400390049900914868D1F808C0CB68AA
:1009D0000A6940EA0C00184310434A6910438A69C7
:1009E0001043CA691043096A0143039808430390FE
:1009F0000498406A042808D1FFE70499C86A096B83
:100A00000143039808430390FFE70398049909689A
:100A100008600498006840690390039820F007007C
:100A200003900498416A0398084303900498406A2D
:100A300004281AD1FFE70498816A039808430390B9
:100A40000498C06A80B1FFE70498FFF73BFD50B1FE
:100A5000FFE70499402048650499012081F835009A
:100A60008DF8170019E0FFE7FFE70398049909687C
:100A700048610498FFF7FAFC01900498C16D3F208B
:100A8000884001998860049900204865049A0121F2
:100A900082F835108DF81700FFE79DF8170006B0B3
:100AA00080BD000086B004908DF80F1002920020E7
:100AB0008DF80700FFE7049890F83400012804D16E
:100AC000FFE702208DF8170043E00499012081F828
:100AD0003400FFE7FFE7049890F83500012829D19A
:100AE000FFE79DF80F000146009105281DD80099E9
:100AF000DFE801F003070B0F131702980499C8638E
:100B000017E002980499086413E002980499486475
:100B10000FE00298049988640BE002980499C86475
:100B200007E002980499086503E001208DF80700AA
:100B3000FFE703E001208DF80700FFE7FFE70499D6
:100B4000002081F83400FFE79DF807008DF81700BA
:100B5000FFE79DF8170006B07047000080B588B029
:100B6000069005910492039300208DF80B000698DF
:100B7000806D0190FFE7069890F83400012804D1B9
:100B8000FFE702208DF81F0045E00699012081F85B
:100B90003400FFE7FFE7069890F8350001282BD1D5
:100BA000FFE70699022081F8350006990020486584
:100BB00006980599049A039BFFF7FCFC0698C16D03
:100BC0003F2088400199886006980168086840F0D5
:100BD000160008600698006C38B1FFE706980168B7
:100BE000086840F008000860FFE706980168086898
:100BF00040F00100086009E0FFE70699002081F855
:100C00003400FFE702208DF80B00FFE79DF80B0092
:100C10008DF81F00FFE79DF81F0008B080BD0000A1
:100C20008DB00C900B9100200990089007900A90CD
:100C3000FFE70A980F2800F2BE81FFE70A9901201A
:100C4000884009900B980068099908400890089816
:100C50000999884240F0AA81FFE70B98406800F0AC
:100C60000300012807D0FFE70B98406800F003005D
:100C700002282FD1FFE70C98806807900A9841005E
:100C8000032000FA01F10798884307900B98C06889
:100C90000A99490000FA01F107980843079007985C
:100CA0000C9988600C98406807900A99012000FA16
:100CB00001F10798884307900B984068C0F3001033
:100CC0000A9900FA01F107980843079007980C99D0
:100CD0004860FFE70B98406800F00300032818D035
:100CE000FFE70C98C06807900A984100032000FABB
:100CF00001F10798884307900B9880680A9949008A
:100D000000FA01F107980843079007980C99C8600A
:100D1000FFE70B98406800F00300022826D1FFE7A8
:100D20000C980A996FF0030202EA51010844006A24
:100D300007900A9800F0070081000F2000FA01F1E7
:100D40000798884307900B9800690A9901F00701FA
:100D5000890000FA01F107980843079007980C9959
:100D60000A9B02EA530211440862FFE70C980068EC
:100D700007900A984100032000FA01F10798884380
:100D800007900B98406800F003000A99490000FAA8
:100D900001F107980843079007980C9908600B9891
:100DA00080798007002800F00081FFE7FFE700203E
:100DB000069043F64400C4F20200016841F4804109
:100DC0000160006800F4804006900698FFE70A98EA
:100DD00020F0030043F60801C4F2010140580790D7
:100DE0000A9800F0030081000F2000FA01F1079833
:100DF000884307900C980021C4F20201884203D175
:100E0000FFE70020059050E00C9840F20041C4F24A
:100E10000201884203D1FFE70120049042E00C98D0
:100E200040F60001C4F20201884203D1FFE702202C
:100E3000039034E00C9840F60041C4F2020188426D
:100E400003D1FFE70320029026E00C9841F2000155
:100E5000C4F20201884203D1FFE70420019018E0A8
:100E60000C9841F20041C4F20201884203D1FFE72D
:100E7000052000900AE00C9941F60002C4F202023B
:100E80000720914208BF06200090FFE700980190DC
:100E9000FFE701980290FFE702980390FFE70398AD
:100EA0000490FFE704980590FFE70598C0B20A99FF
:100EB00001F00301890000FA01F107980843079047
:100EC00007980A9921F0030143F60802C4F20102CF
:100ED000885043F60840C4F2010000680790089962
:100EE0000798884307900B988079C006002805D59D
:100EF000FFE70899079808430790FFE7079843F62C
:100F00000841C4F20101086043F60C40C4F201003C
:100F10000068079008990798884307900B98807994
:100F20008006002805D5FFE7089907980843079031
:100F3000FFE7079843F60C41C4F20101086043F64D
:100F40000440C4F20100006807900899079888439C
:100F500007900B9880798007002805D5FFE708994E
:100F6000079808430790FFE7079843F60441C4F247
:100F70000101086043F60040C4F2010000680790D8
:100F800008990798884307900B988079C00728B183
:100F9000FFE70899079808430790FFE7079843F68B
:100FA0000041C4F201010860FFE7FFE7FFE70A988C
:100FB00001300A903DE60DB07047000082B001900C
:100FC000ADF802108DF801209DF8010028B1FFE76F
:100FD000BDF802000199886105E0BDF80200000437
:100FE00001998861FFE702B07047000040F2D0002D
:100FF000C2F200000068704740F20600C2F2000032
:10100000027840F2D001C2F2000108681044086082
:101010007047000080B582B043F60041C4F202017F
:10102000086840F400700860086840F48060086058
:10103000086840F480700860032000F08FF80020FA
:10104000019000F005F800F03BF8019802B080BD77
:1010500080B582B0009040F20000C2F2000000684B
:1010600040F20601C2F200010A784FF47A71B1FB36
:10107000F2F1B0FBF1F000F0F7FD20B1FFE7012045
:101080008DF8070018E000980F280DD8FFE70099A9
:101090004FF0FF30002200F047F8009840F20801BE
:1010A000C2F20001086003E001208DF8070003E0B0
:1010B00000208DF80700FFE79DF8070002B080BD13
:1010C00080B582B0FFE70020019043F64400C4F2EF
:1010D0000200016841F480410160006800F4804032
:1010E00001900198FFE7FFE70020009043F64000E1
:1010F000C4F20200016841F080510160006800F014
:10110000805000900098FFE7072000F027F802B019
:1011100080BD000080B582B08DF807009DF9070002
:1011200000F03AFF02B080BD80B586B08DF81700A0
:10113000049103920020029000F046FF02909DF976
:101140001700019002980499039A00F05BFE014693
:10115000019800F041FF06B080BD000080B582B06C
:101160000190019800F05AFF02B080BD80B584B0B4
:1011700002900191029820B9FFE701208DF80F003D
:1011800021E1019843F60041C4F20201096801F02F
:101190000F01884212D9FFE7019943F60040C4F2DB
:1011A00002000170006800F00F000199884204D02D
:1011B000FFE701208DF80F0005E1FFE702980078B6
:1011C000800700282AD5FFE702980078400700280A
:1011D00009D5FFE743F60801C4F20201086840F4AC
:1011E000E0500860FFE7029800780007002809D562
:1011F000FFE743F60801C4F20201086840F46040CA
:101200000860FFE743F60801C4F20201086820F015
:10121000F000029A926810430860FFE70298007895
:10122000C00700286ED0FFE702984068012811D15E
:10123000FFE743F60000C4F20200006800F400314A
:101240000020B0EB514F04D1FFE701208DF80F00D3
:10125000B9E02CE002984068022805D0FFE7029828
:101260004068032811D1FFE743F60000C4F20200F2
:10127000006800F000710020B0EB516F04D1FFE76F
:1012800001208DF80F009EE010E043F60000C4F24C
:101290000200006800F002010020B0EB510F04D101
:1012A000FFE701208DF80F008DE0FFE7FFE743F631
:1012B0000801C4F20201086820F00300029A526893
:1012C00010430860FFF792FE0090FFE743F6080026
:1012D000C4F20200006800F00C0002994968B0EB0B
:1012E000810F0ED0FFE7FFF781FE0099401A41F20F
:1012F0008931884204D3FFE703208DF80F0062E0B4
:10130000E4E7FFE7019843F60041C4F202010968EF
:1013100001F00F01884212D2FFE7019943F6004025
:10132000C4F202000170006800F00F0001998842C9
:1013300004D0FFE701208DF80F0044E0FFE702989A
:101340000078400700280CD5FFE743F60801C4F2F7
:101350000201086820F4E050029AD2681043086045
:10136000FFE702980078000700280DD5FFE743F655
:101370000801C4F20201086820F46040029A126970
:1013800040EAC2000860FFE700F022F843F60801D7
:10139000C4F202010968C9B20A0942F22211C0F678
:1013A0000001895CC84040F20001C2F200010860FF
:1013B00040F20800C2F200000068FFF749FE00207A
:1013C0008DF80F00FFE79DF80F0004B080BD00000E
:1013D00080B586B0002005900490039002900190A3
:1013E00043F60800C4F20200006800F00C00014659
:1013F00000910C2800F29B800099DFE801F007982B
:1014000098980D98989813989898570042F2004031
:10141000C0F2F400019090E041F20020C0F27A00A6
:1014200001908AE043F60400C4F20200016801F072
:101430003F01059100684002002813D5FFE743F6FD
:101440000400C4F202000068C0F3881041F20021D9
:10145000C0F27A01A0FB0101059A0023FEF722FFEA
:10146000049012E043F60400C4F202000068C0F3E6
:10147000881042F20041C0F2F401A0FB0101059A7C
:101480000023FEF70FFF0490FFE743F60400C4F2C9
:101490000200006800F44031022000EBD1300390DC
:1014A00004980399B0FBF1F0019046E043F6040084
:1014B000C4F20200016801F03F010591006840029A
:1014C000002813D5FFE743F60400C4F202000068C9
:1014D000C0F3881041F20021C0F27A01A0FB0101A3
:1014E000059A0023FEF7DEFE049012E043F60400A6
:1014F000C4F202000068C0F3881042F20041C0F25A
:10150000F401A0FB0101059A0023FEF7CBFE049035
:10151000FFE743F60400C4F202000068C0F3027063
:10152000029004980299B0FBF1F0019005E042F2BC
:101530000040C0F2F4000190FFE7019806B080BDC2
:1015400080B586B00490049820B9FFE701208DF89B
:10155000170084E304980078C007002800F0BA80E0
:10156000FFE743F60800C4F20200006800F00C0038
:10157000042828D0FFE743F60800C4F20200006800
:1015800000F00C0008280BD1FFE743F60400C4F27A
:101590000200006800F48000B0F5800F13D0FFE770
:1015A00043F60800C4F20200006800F00C000C28AA
:1015B0001ED1FFE743F60400C4F2020000684002B7
:1015C000002815D5FFE743F60000C4F202000068CA
:1015D00000F400310020B0EB514F08D0FFE7049831
:1015E000406820B9FFE701208DF8170037E370E06D
:1015F000FFE704984068B0F5803F09D1FFE743F664
:101600000001C4F20201086840F48030086020E064
:1016100004984068B0F5A02F0DD1FFE743F6000114
:10162000C4F20201086840F480200860086840F4B1
:10163000803008600CE043F60001C4F20201086843
:1016400020F480300860086820F480200860FFE7FC
:10165000FFE7FFE704984068E8B1FFE7FFF7C6FC43
:101660000390FFE743F60000C4F20200006800F4B4
:1016700000310020B0EB514F0CD1FFE7FFF7B6FC73
:101680000399401A652804D3FFE703208DF817005B
:10169000E5E2E7E71CE0FFF7A9FC0390FFE743F66C
:1016A0000000C4F20200006800F400310020B0EB3A
:1016B000514F0CD0FFE7FFF799FC0399401A6528BA
:1016C00004D3FFE703208DF81700C8E2E7E7FFE740
:1016D000FFE7FFE7049800788007002840F1A98021
:1016E000FFE743F60800C4F20200006810F00C0F98
:1016F00026D0FFE743F60800C4F20200006800F0BD
:101700000C00082809D1FFE743F60400C4F20200E8
:1017100000684002002813D5FFE743F60800C4F232
:101720000200006800F00C000C282CD1FFE743F603
:101730000400C4F2020000684002002823D4FFE73E
:1017400043F60000C4F20200006800F0020100202D
:10175000B0EB510F09D0FFE70498C068012804D00E
:10176000FFE701208DF8170079E243F60001C4F28B
:101770000201086820F0F800049A126940EAC200E9
:101780000860FFE754E00498C06870B3FFE70021E9
:10179000C4F2472101200860FFF728FC0390FFE70F
:1017A00043F60000C4F20200006800F002010020CD
:1017B000B0EB510F0CD1FFE7FFF718FC0399401A6B
:1017C000032804D3FFE703208DF8170047E2E7E77B
:1017D00043F60001C4F20201086820F0F800049A00
:1017E000126940EAC200086021E00021C4F24721EA
:1017F00000200860FFF7FAFB0390FFE743F60000C4
:10180000C4F20200006800F002010020B0EB510FAA
:101810000CD0FFE7FFF7EAFB0399401A032804D333
:10182000FFE703208DF8170019E2E7E7FFE7FFE77E
:10183000FFE704980078000700284BD5FFE70498DD
:10184000406918B3FFE740F68061C4F247210120E8
:101850000860FFF7CBFB0390FFE743F67400C4F288
:101860000200006800F002010020B0EB510F0CD123
:10187000FFE7FFF7BBFB0399401A032804D3FFE7F8
:1018800003208DF81700EAE1E7E722E040F68061E7
:10189000C4F2472100200860FFF7A8FB0390FFE790
:1018A00043F67400C4F20200006800F00201002058
:1018B000B0EB510F0CD0FFE7FFF798FB0399401AEC
:1018C000032804D3FFE703208DF81700C7E1E7E7FB
:1018D000FFE7FFE7049800784007002840F1CE803A
:1018E000FFE700208DF8070043F64000C4F2020035
:1018F0000068C000002815D4FFE7FFE70020009033
:1019000043F64000C4F20200016841F080510160DA
:10191000006800F0805000900098FFE701208DF8EB
:101920000700FFE747F20000C4F200000068C005AE
:10193000002822D4FFE747F20001C4F20001086842
:1019400040F480700860FFF751FB0390FFE747F217
:101950000000C4F200000068C00500280CD4FFE7B6
:10196000FFF744FB0399401A032804D3FFE7032041
:101970008DF8170073E1EAE7FFE7FFE70498806856
:10198000012809D1FFE743F67001C4F2020108689B
:1019900040F0010008601FE00498806805280DD120
:1019A000FFE743F67001C4F20201086840F004004A
:1019B0000860086840F0010008600CE043F6700120
:1019C000C4F20201086820F001000860086820F0F5
:1019D00004000860FFE7FFE7FFE704988068F8B1BC
:1019E000FFE7FFF703FB0390FFE743F67000C4F245
:1019F0000200006800F002010020B0EB510F0ED190
:101A0000FFE7FFF7F3FA0399401A41F28931884260
:101A100004D3FFE703208DF8170020E1E5E71EE07F
:101A2000FFF7E4FA0390FFE743F67000C4F2020008
:101A3000006800F002010020B0EB510F0ED0FFE76C
:101A4000FFF7D4FA0399401A41F28931884204D34E
:101A5000FFE703208DF8170001E1E5E7FFE79DF8B8
:101A60000700012809D1FFE743F64001C4F2020153
:101A7000086820F080500860FFE7FFE7049880695D
:101A8000002800F0E880FFE743F60800C4F20200F7
:101A9000006800F00C00082800F08880FFE7049838
:101AA000806902285FD1FFE76021C4F2472100204E
:101AB0000860FFF79BFA0390FFE743F60000C4F2CB
:101AC0000200006800F000710020B0EB516F0CD0F4
:101AD000FFE7FFF78BFA0399401A032804D3FFE7C7
:101AE00003208DF81700BAE0E7E70499C869D1F838
:101AF00020C04B6A8A6A40EA0C0040EA8310D20395
:101B00004FF6FF739A43A2F580321043CA6A40EA47
:101B10000260096B40EA017043F60401C4F202015D
:101B200008606021C4F2472101200860FFF75EFAD7
:101B30000390FFE743F60000C4F20200006800F0E3
:101B400000710020B0EB516F0CD1FFE7FFF74EFAA8
:101B50000399401A032804D3FFE703208DF81700E8
:101B60007DE0E7E721E06021C4F247210020086022
:101B7000FFF73CFA0390FFE743F60000C4F20200CF
:101B8000006800F000710020B0EB516F0CD0FFE74F
:101B9000FFF72CFA0399401A032804D3FFE7032028
:101BA0008DF817005BE0E7E7FFE753E004988069F2
:101BB000012804D1FFE701208DF817004FE043F61C
:101BC0000400C4F2020000680290049880690128B1
:101BD0003AD0FFE7029800F480000499C96988426E
:101BE00032D1FFE7029800F03F000499096A884269
:101BF0002AD1FFE7029847F6C07108400499496A64
:101C0000B0EB811F20D1FFE7029800F44030049927
:101C1000896AC9034FF6FF729143A1F5803188426A
:101C200012D1FFE7029800F070600499C96AB0EB26
:101C3000016F09D1FFE7029800F0E0400499096BB9
:101C4000B0EB017F04D0FFE701208DF8170006E01C
:101C5000FFE7FFE7FFE700208DF81700FFE79DF89B
:101C6000170006B080BD000080B582B001900198D9
:101C700000F0FEF802B080BD80B584B0FFE7002020
:101C8000039043F63000C4F20200016841F4800181
:101C90000160006800F4800003900398FFE740F2C1
:101CA0007000C2F20000019046F21041C4F202013D
:101CB000016000210291416080228260C160016167
:101CC00041618161C1610162042242620322826238
:101CD000C1620163FEF72EFE18B1FFE7FEF792FC2A
:101CE000FFE73820009000221146FFF71DFA009808
:101CF000FFF710FA04B080BD80B58EB000200D90C3
:101D00000C900B900A900990FFE70020089043F692
:101D10003000C4F20200016841F004010160006873
:101D200000F0040008900898FFE7FFE70020079004
:101D300043F63000C4F20200016841F08001016006
:101D4000006800F0800007900798FFE7FFE7002099
:101D5000069043F63000C4F20200016841F0010130
:101D60000160006800F0010006900698FFE7FFE7B9
:101D70000020059043F63000C4F20200016841F0F3
:101D800002010160006800F0020005900598FFE77D
:101D90000020C4F20200039020210191002202924F
:101DA000FFF70CF902984FF4005109914FF4041118
:101DB0000A910B9040F60000C4F2020009A90491B8
:101DC000FEF72EFF029A039804990C23099302232D
:101DD0000A930B9203220C9207220D92FEF720FF2A
:101DE000019B029A03980499099301230A930B9289
:101DF0000C92FEF715FF0EB080BD000081B0009080
:101E000001B0704788B0079006910592079800F0DE
:101E1000070004900498C0F10700052803D3FFE7EA
:101E20000420019004E00498C0F107000190FFE74E
:101E30000198039004980430062803D8FFE7002097
:101E4000009003E0049803380090FFE700980290A8
:101E500006980399012202FA01F101390840029B18
:101E6000984005999A40013A1140084308B07047DC
:101E700080B582B0009000980138B0F1807F03D324
:101E8000FFE70120019019E0009801384EF214019B
:101E9000CEF2000108604FF0FF300F2100F09CF8F7
:101EA0004EF21801CEF20001002008604EF210023E
:101EB000CEF20002072111600190FFE7019802B005
:101EC00080BD000080B5FFF797F880BD80B594B065
:101ED00007A83421FEF75EFA0020069005900490D2
:101EE00003900290FFE70020019043F64000C4F207
:101EF0000200016841F080510160006800F08050EC
:101F000001900198FFE7FFE70020009047F20000F2
:101F1000C4F200000168012262F38F3101600068A1
:101F200000F4404000900098FFE702200790012154
:101F30000A9110210B910D9000220E920F914FF4F7
:101F4000A8711091042111911290139007A8FFF726
:101F5000F7FA18B1FFE7FEF755FBFFE70F200290F5
:101F600002210391002004904FF4805205920690C4
:101F700002A8FFF7FBF818B1FFE7FEF743FBFFE706
:101F800014B080BD4EF68851CEF20001086840F4CE
:101F9000700008607047000081B08DF803009DF963
:101FA000030000280ED4FFE79DF9031001F01F0283
:101FB000012090404A094EF20011CEF2000141F892
:101FC0002200FFE701B070474EF60C50CEF2000041
:101FD0000068C0F30220704782B08DF807000091BE
:101FE0009DF9070000280AD4FFE7009800019DF939
:101FF00007104EF20042CEF2000288540BE0009827
:1020000000019DF8071001F00F014EF61452CEF2B8
:1020100000028854FFE702B07047000083B00290CE
:10202000029800F0070000904EF60C51CEF200012D
:102030000868019001984FF6FF0210400190019846
:10204000009A40EA02200022C0F2FA5210430190A6
:102050000198086003B0704780B586B000200390F7
:1020600005900490FEF7D6FFFFF730FFFFF744FE20
:10207000FFF702FE039940F27000C2F2000041F641
:10208000FD52C0F60002FEF70DFDFFE740F27000C2
:10209000C2F2000040F20401C2F200011422C4F2B4
:1020A00002020123FEF75AFDFEF7A0FF0490FFE7AE
:1020B000049800F5FA700290FEF798FF0146029826
:1020C000884201D3FFE7F3E740F20400C2F20000C8
:1020D000411C40F27000C2F200001422C4F202025D
:1020E0000123FEF73BFDFEF781FF0490FFE7049814
:1020F00000F5FA700190FEF779FF014601988842D9
:1021000001D3FFE7F3E7C1E7F1EE100A4FF6FF71E5
:10211000C0F2C03120EA010040F04070E1EE100A48
:1021200070470000000000000000010203040607E1
:1021300008090006101600061016000060210008AD
:1021400000000020100000000002000870210008BC
:1021500010000020C80600001C020008000000005B
:102160000024F40000FF0100100000000000000047
:04000005080001C529
:00000001FF
