:020000040800F2
:10000000D8060020650200086D0200086F02000893
:100010007102000873020008750200080000000069
:10002000000000000000000000000000770200084F
:1000300079020008000000007B020008951000080B
:100040007F0200087F0200087F0200087F0200088C
:100050007F0200087F0200087F0200087F0200087C
:100060007F0200087F0200087F0200087F0200086C
:100070007F0200087F0200087F0200087F0200085C
:100080007F0200087F0200087F0200087F0200084C
:100090007F0200087F0200087F0200087F0200083C
:1000A0007F0200087F0200087F0200087F0200082C
:1000B0007F0200087F0200087F0200087F0200081C
:1000C0007F0200087F0200087F0200087F0200080C
:1000D0007F0200087F0200087F0200087F020008FC
:1000E0007F0200087F0200087F0200087F020008EC
:1000F0007F0200087F0200087F0200087F020008DC
:100100007F0200087F0200087F0200087F020008CB
:100110007F0200087F0200087F0200087F020008BB
:100120007F0200087F0200087F0200087F020008AB
:100130007F02000800000000000000007F020008AD
:100140007F0200087F0200087F0200087F0200088B
:100150007F0200087F0200087F0200087F0200087B
:100160007F0200087F0200087F0200087F0200086B
:100170007F0200087F0200087F02000800000000E4
:10018000000000007F0200080000000000000000E6
:100190007F02000800000000000000007F0200084D
:1001A0000000000000000000000000007F020008C6
:1001B0007F0200087F0200087F0200087F0200081B
:1001C0007F02000800F002F800F03CF80AA090E876
:1001D000000C82448344AAF10107DA4501D100F002
:1001E00031F8AFF2090EBAE80F0013F0010F18BF93
:1001F000FB1A43F0010318471011000030110000F2
:10020000103A24BF78C878C1FAD8520724BF30C842
:1002100030C144BF04680C60704700000023002414
:1002200000250026103A28BF78C1FBD8520728BF06
:1002300030C148BF0B6070471FB501F04CF81FBDBF
:1002400010B510BD00F0A9F81146FFF7F5FF00F05A
:1002500083FF00F0C7F803B4FFF7F2FF03BC00F020
:10026000CFF800000948804709480047FEE7FEE74D
:10027000FEE7FEE7FEE7FEE7FEE7FEE7FEE7FEE756
:1002800004480549054A064B70470000451100081F
:10029000C5010008D8000020D8060020D8020020A0
:1002A000D802002053EA020C00F069802DE9F04BDF
:1002B0004FF00006002B1FBFB3FA83F503FA05F4D5
:1002C00024FA05F65E4012BF1643B2FA82F502FA2E
:1002D00005F4C5F120051EBF22FA05FC44EA0C0412
:1002E000203556EA044C4FEA144418BF641C4FF002
:1002F00000084FF00009904271EB030C39D300293C
:1003000019BFB1FA81F701FA07F6B0FA80F700FADF
:1003100007F6C7F120071EBF20FA07FC46EA0C06C5
:100320002037B6FBF4FCA7EB0507103F07F01F0BC7
:10033000CBF120062CFA06F60CFA0BFB44BFB346B1
:100340000026202FA4BF5E464FF0000B5BEA060C90
:1003500008BF4FF0010B19EB0B0948EB0608ABFB8C
:10036000027C06FB02CC0BFB03CCC01B71EB0C0127
:10037000C1E70B46024641464846BDE8F08B13B53F
:10038000084318BF4FF0FF300146AFF30080BDE8CF
:100390001C407047704770477047754600F02CF856
:1003A000AE4605006946534620F00700854618B062
:1003B00020B5FFF765FFBDE820404FF000064FF085
:1003C00000074FF000084FF0000BAC46ACE8C00946
:1003D000ACE8C009ACE8C009ACE8C00921F00701ED
:1003E0008D46704710B50446AFF300802046BDE847
:1003F0001040FFF730BF0000004870471000002099
:1004000001491820ABBEFEE726000200704700003D
:100410002DE9F041044600F0A1FAECB105460220B6
:1004200084F835000020216884F83400086820F042
:100430000100086021680868C00711D000F08EFA3A
:10044000401B0528F6D9032520230320636584F883
:100450003550BDE8F08100BF0120BDE8F08100BF4C
:10046000086848F23F02CFF21002D4E9013500EAF1
:10047000020C04F10C0898E8C10143EA0C032B4379
:100480001843D4E9072E304338431043626A40EAE8
:100490000E00042A40EA08031CD1206BD4E90A2E7E
:1004A00040EA0E00184308604869BEF1000F20F0D2
:1004B000030040EA020040F0040C11D0B8F5005FE0
:1004C00036D0B8F1000F45D1022A46D0012A3BD0E0
:1004D00032B942E00B60486920F0070040EA020CA4
:1004E00001F0F8004AF6AB221038CAF6AA22A0FBA7
:1004F00002231A0941F20033C0F600039A5C40F26D
:10050000FF335F284FF03F00C1F814C021EA030118
:1005100000FA02F088BF0431C4E916128860002393
:1005200001250020636584F83550BDE8F08100BFE7
:10053000032AD5D8012540230120DFE802F0030E6D
:10054000030500BF82E700BFAEF1C070B0FA80F0D3
:10055000400904E0032A04D3C2D1CEF3006000288E
:10056000BED0012540230120636584F83550BDE8E5
:10057000F08100002DE9F04F81B090460E46044610
:1005800000F0ECF994F83510022925D18146206855
:100590000068C0052AD4D4E916A01021002E08BF97
:1005A0002021DAF8002001FA00FB12EA0B0F009676
:1005B00024D0616D00291CBF616D5FEAC17169D1F2
:1005C0000099002958D0102101FA00F0CAF808005B
:1005D000002001B0BDE8F08F80206065002084F825
:1005E0003400012001B0BDE8F08F00BF4FF48070EF
:1005F0006065012001B0BDE8F08F00BF08F1010780
:100600004FF0080C0126042503E000BF11EA0B0F90
:10061000CFD1616DC907CCD16FB1B8F1000F65D0F2
:1006200000F09CF9A0EB090040455FD8E06D4FF069
:10063000080C01260425DAF800100CFA00F20A4230
:1006400005D0636D43F001036365CAF8082006FA1C
:1006500000F20A4205D0636D43F002036365CAF8F5
:10066000082005FA00F20A42D0D0636D43F004037B
:100670006365CAF80820C9E7302101FA00F0CAF81A
:100680000800012084F83500002084F8340001B00F
:10069000BDE8F08FA76D00F061F994F835100229DC
:1006A00030D106462068216C026822F016020260F2
:1006B000426922F08002426109B9A16C19B1016856
:1006C00021F008010160016821F00101016000BF13
:1006D00020680068C00719D000F040F9801B062888
:1006E000F6D320206065032016E000BF202060655F
:1006F000012084F83500002084F83400032001B084
:10070000BDE8F08F8020606508E000BFE06D3F210C
:1007100001FA00F0B860012084F83500E06D302166
:1007200001FA00F0CAF808000120002184F8350021
:1007300084F8341001B0BDE8F08F000010B5844695
:1007400090F8340001282CD001208CF834009CF85B
:100750003500012822D102208CF835000020CCF889
:100760005400DCF800E0DCF808C0DEF80040BCF122
:10077000400F24F48024CEF80040CEF804300B461D
:1007800004BF13460A46CEF80830CEF80C20DEF837
:10079000001041F00101CEF8001010BD00208CF8CF
:1007A0003400022010BD00002DE9F04F82B000F1AE
:1007B0003E4241F6000502F1FF77C4F2020507222E
:1007C00043F6004E4FEAB726A84208BF0622C4F2FD
:1007D000010E062E38BF4FEAB7220125002600275A
:1007E0004FF00008009208E008F101080437B8F162
:1007F000100F06F1020600F0A7800C6805FA08F950
:1008000014EA090FF0D0D1F804B003220BF0030C66
:10081000ACF10104B240012C6FEA020A10D88268E0
:10082000CC6802EA0A02B440224382604268CBF3F9
:10083000001422EA090204FA08F42243426005E0A7
:10084000BCF1030F02D14FF0030C20E0C2688C68AA
:1008500002EA0A02B4402243BCF1020FC26016D180
:100860006FF0030202EA58020244D2F820C007F0F7
:100870001C050F230C69AB402CEA030304FA05F5B1
:100880002B431362D1F804B001250BF0030C02686E
:100890000CFA06F302EA0A021A431BF4403F026014
:1008A000A2D0002243F644030192C4F202031A6864
:1008B0004FF6084C42F480421A601A68CFF6FF7C6B
:1008C00002F480420192019A28F00302724452F825
:1008D0000C3007F00C050F24AC40A343009C04FA35
:1008E00005F52B4342F80C30DEF808204B6842EA4D
:1008F000090543F60C4CDC0258BF22EA0905CEF884
:100900000850C4F2010CDCF800209C0242EA090500
:1009100058BF22EA0905CCF80050DEF804209C03F9
:1009200042EA090558BF22EA0905CEF80450DEF86C
:100930000020DB0342EA090558BF22EA0905CEF888
:100940000050012550E700BF02B0BDE8F08F000065
:10095000002A08BF090481617047000040F2D000FE
:10096000C2F200000068704740F2000040F2D0017F
:10097000C2F20000C2F2000100780A681044086068
:100980007047000080B543F60040C4F202000168E1
:1009900041F400710160016841F480610160016807
:1009A00041F480710160032000F076F8002000F02F
:1009B00005F800F027F8002080BD000070B540F277
:1009C0000006C2F2000640F208013278C2F20001CD
:1009D0004FF47A730968B3FBF2F20446B1FBF2F10B
:1009E000084600F041FB0F2C4FF0010508D838B93C
:1009F0004FF0FF3021460022002500F021F87460FE
:100A0000284670BD82B0002043F640010190C4F238
:100A100002014A6842F480424A604A6802F4804215
:100A20000192019A0090086840F0805008600868C0
:100A300000F0805000900098072002B000F02CB821
:100A400010B54EF60C5CCEF2000CDCF80030C3F3AF
:100A5000022E8EF00704042C28BF0424BEF10303E9
:100A60004FF0FF3E0EFA04F438BF0023A143994033
:100A70000EFA03F39A43114300F00F0200F16043B2
:100A80000901043A03F564436244002848BF02F1B7
:100A90000C03197010BD00004EF60C51CEF200018F
:100AA0000A684FF6FF031A4060F30A2242F08060A2
:100AB00040F0FD70086070472DE9F041002800F01B
:100AC0008B8043F60808C4F202080446D8F8F803FD
:100AD0000D4600F00F00884207D288F8F853D8F886
:100AE000F80300F00F00A84276D12068810717D5DF
:100AF000410705D5D8F8001041F4E051C8F80010BE
:100B0000010705D5D8F8001041F46041C8F800107D
:100B1000D8F80010A26821F0F0011143C8F80010C5
:100B2000C0073FD1D8F8F80300F00F00A84207D95A
:100B300088F8F853D8F8F80300F00F00A8424BD11A
:100B40002068410707D5D8F80010E26821F4E05189
:100B50001143C8F80010000708D5D8F80000216933
:100B600020F4604040EAC100C8F8000000F054F8EA
:100B7000D8F8001041F2F022C1F30311C0F60002D0
:100B8000515C40F2080220FA01F140F20400C2F286
:100B900000000068C2F200021160FFF70FFF0020A2
:100BA000BDE8F0816068811E022907D258F8081C50
:100BB00089015CBF0120BDE8F08111E0012807D167
:100BC00058F8081C89035CBF0120BDE8F08107E0EC
:100BD00058F8081C890703D40120BDE8F08100BF44
:100BE000D8F8001021F003010843C8F80000FFF70F
:100BF000B5FE064641F28837D8F80000616800F07B
:100C00000C00B0EB810F8DD0FFF7A8FE801BB8421F
:100C1000F2D90320BDE8F08110B543F60404C4F214
:100C200002046068C0F3810142F20040C0F2F400A7
:100C3000DFE801F04402081841F20020C0F27A0017
:100C400010BD00BF216801F03F02216823684902FE
:100C5000C3F3881116D4A1FB00010023FFF722FB88
:100C600017E000BF216801F03F02216823684902B4
:100C7000C3F3881116D4A1FB00010023FFF712FB78
:100C800017E000BF41F20020C0F27A004843B0FBF9
:100C9000F2F021680222C1F3014102EB4101B0FBF5
:100CA000F1F010BD41F20020C0F27A004843B0FBE1
:100CB000F2F02168C1F30271B0FBF1F010BD000049
:100CC0002DE9F04182B0002800F0968004460078BB
:100CD00043F60006C007C4F202062BD0B06800F04D
:100CE0000C00042820D0B06800F00C00082802D1C5
:100CF0007068400218D4B06800F00C000C2802D1D3
:100D00007068400210D46068B0F5803F07D0B0F53D
:100D1000A02F40F03B81306840F480203060306884
:100D200040F4803030603BE13068800302D5606879
:100D3000002861D02078800722D5B06810F00C0F11
:100D400011D0B06800F00C00082802D17068400291
:100D500009D5B06800F00C000C2840F09F80706846
:100D6000400200F19B803068800702D5E0680128CE
:100D700042D13068216920F0F80040EAC1003060BB
:100D8000207800073CD42078400751D4A56985B36A
:100D9000B06800F00C00082840F0A880012D2BD08E
:100DA0007068E16900F480028A4225D1216A00F06E
:100DB0003F028A4220D147F6C071626A0140B1EB1E
:100DC000821F19D1A16A4FF6FF73C903994300F43A
:100DD0004032A1F580318A420ED1E16A00F07062A2
:100DE000B2EB016F08D1216B00F0E040B0EB017F66
:100DF00002D1002034E100BF012002B0BDE8F08143
:100E00006069002840F20000C4F247205ED0012152
:100E1000C0F8801EFFF7A2FD054600BF706F800777
:100E2000B1D4FFF79BFD401B0228F7D9C5E000BFF6
:100E3000306C10F080580AD100200190306C40F0E6
:100E400080503064306C00F080500190019847F27F
:100E50000007C4F200073868C00511D4386840F4B0
:100E600080703860FFF77AFD054600BF3868C0051E
:100E700006D4FFF773FD401B0228F7D99DE000BFA1
:100E8000A068012805D0052852D1306F40F0040039
:100E90003067306F40F00100306753E0E0680028B1
:100EA00060D00020C4F2472001210160FFF756FD09
:100EB000054600BF306880073FF55BAFFFF74EFD8A
:100EC000401B02284FF00300F4D9C9E00021C0F80C
:100ED000801EFFF743FD0546706F80077FF553AF17
:100EE000FFF73CFD401B0228F6D966E00027C4F25C
:100EF000472700203866FFF731FD022D05460BD14C
:100F0000306880015ED5FFF729FD401B02284FF0B5
:100F10000300F5D9A4E000BF306880017FF569AF18
:100F2000FFF71CFD401B02284FF00300F4D997E0A7
:100F3000316F002821F001013167316F21F0040188
:100F4000316763D0FFF70AFD054641F2883700BFDD
:100F5000306F80076CD4FFF701FD401BB842F7D912
:100F60002BE000BF0020C4F2472000210160FFF702
:100F7000F5FC0546306880077FF502AFFFF7EEFC11
:100F8000401B02284FF00300F4D969E031680028C3
:100F900021F480313160316821F48021316051D0F9
:100FA000FFF7DCFC054600BF306880033FF5C2AEAA
:100FB000FFF7D4FC401B6428F6D9032002B0BDE83B
:100FC000F08100BF04F11C052FCD246B084340EADB
:100FD0008210D9034FF6FF729143A1F5803140EAA8
:100FE0000560084340EA0470706001203866FFF72E
:100FF000B5FC0446306880013FF5FBAEFFF7AEFC60
:10100000001B02284FF00300F4D929E0FFF7A6FCEB
:10101000054641F2883700BF306F800708D5FFF7DB
:101020009DFC401BB8424FF00300F5D918E000BF0B
:10103000B8F1000F7FF4AAAE306C20F0805030641D
:10104000A4E600BFFFF78AFC0546306880037FF501
:1010500071AEFFF783FC401B64284FF00300F4D906
:1010600002B0BDE8F0810000411E0020B0EB116F1E
:101070001CBF012070474EF21002CEF200025160F8
:101080004EF62351CEF20001F0230B700721906041
:1010900011607047FFF768BCB0B594B0002443F608
:1010A00040000C94CDE90A44CDE908440694CDE90A
:1010B0000444CDE902440194C4F202000168012213
:1010C00041F0805101600068022500F080500190DD
:1010D000019847F200000194C4F20000016862F335
:1010E0008F310160006800F44040019001981020A9
:1010F0000B900F904FF4A87010900420CDE91105CB
:1011000007A807950A92CDE90D541395FFF7D8FD6E
:1011100020B1EFF3108072B6FEE700BF0F20CDE9DB
:1011200002054FF48050CDE9050402A80221049481
:10113000FFF7C2FC20B1EFF3108072B6FEE700BFEC
:1011400014B0B0BD4EF68850CEF20000016841F4F4
:10115000700101607047000086B040F20008C4F2E0
:101160000208FFF70FFCFFF797FF002643F6300752
:10117000CDE904660096C4F202073868202140F0E9
:10118000040038603868002200F0040000900098E5
:10119000009638684FF0200940F0800038603868C9
:1011A00000F08000009000980096386840F0010040
:1011B0003860386800F001000090009800963868A8
:1011C00040F002003860386800F00200009000989B
:1011D0004046FFF7BDFB4FF4005001904FF4041060
:1011E00001ADCDE9020608F500602946FFF7DCFAFB
:1011F0000C2001900220CDE902060720032405906F
:10120000404629460494FFF7CFFA0120CDE90206B3
:1012100040462946CDF804900496FFF7C5FA01969A
:10122000386846F2104140F4800038603868C4F2F3
:10123000020100F480000190019840F27000C2F2B7
:1012400000008022C0E900160421C0E90226C0E99E
:101250000466C0E90666C0E90861C0E90A4606639B
:10126000FFF7D6F820B1EFF3108072B6FEE700BFAB
:1012700040F2700540F20C0608F11404C2F20005B9
:10128000C2F200062846314622460123FFF756FAED
:10129000284600214FF0FF32FFF76CF9FFF75EFBA5
:1012A00000F57A77FFF75AFB8742FBD2711C28467C
:1012B00022460123FFF742FA284600214FF0FF3271
:1012C000FFF758F9FFF74AFB00F57A77FFF746FB7F
:1012D0008742FBD2D6E7F1EE100A4FF6FF71C0F25B
:1012E000C03120EA010040F04070E1EE100A704782
:1012F00000000000000000000102030406070809C6
:101300000006101600061016281300080000002022
:101310001000000000020008381300081000002030
:10132000C80600001C0200080100000010000000B8
:081330000024F40000FF00009E
:04000005080001C529
:00000001FF
